:020000023000CC
:10C00000807F0020C1F7030009F803000BF803004C
:10C010000000000000000000000000000000000020
:10C0200000000000000000000000000001E7030025
:10C0300000000000000000000FF8030011F80300EA
:10C0400013F8030013F80300FDE5030013F80300E1
:10C0500013F803000000000013F8030013F80300B6
:10C0600013F8030013F8030013F8030013F8030098
:10C0700013F8030013F8030013F8030013F8030088
:10C0800013F80300E1C4030013F8030013F80300DE
:10C090009DC5030013F8030071F7030013F80300B4
:10C0A00013F8030013F80300000000000000000074
:10C0B0000000000000000000000000000000000080
:10C0C000164B002B00D1144B9D46402292029A1A27
:10C0D000924600218B460F461348144A121A00F06C
:10C0E00067F80F4B002B00D098470E4B002B00D069
:10C0F00098470020002104000D000D48002802D0C0
:10C100000C4800E000BF00F02DF82000290002F0EC
:10C11000B1FB00F011F8C04600000800807F00204D
:10C1200000000000000000006C2C0020E83400201B
:10C130000000000000000000084B10B5041C002B9C
:10C1400002D0002100E000BF054B1868836A002B75
:10C1500000D09847201C00F033F8C04600000000D3
:10C16000BCF903000E4B70B500251E1C0D4CE41AE3
:10C17000A410A54204D0AB00F35898470135F8E766
:10C1800003F00EFC084B00251E1C084CE41AA410FA
:10C19000A54204D0AB00F35898470135F8E770BDCD
:10C1A0006C2C00206C2C00206C2C00206C2C0020AF
:10C1B000031C8218934202D019700133FAE77047CA
:10C1C000FEE7C046BFF34F8F024A034BDA60BFF36E
:10C1D0004F8FFEE70400FA0500ED00E036DF704700
:10C1E00037DF704710B503240723144010D1094BE3
:10C1F0001A604B1CDB009BB2D218074B1A60074B2E
:10C200001C70074B1C70074B1880074B1980231CB0
:10C21000181C10BD6C2C0020702C0020772C0020E6
:10C22000762C0020742C0020782C0020F0B5494B8F
:10C2300087B002921A8801900E1C039309208A424B
:10C2400000D284E004ABDF1D00233B70424B042589
:10C250005B68DB05DB0D1ED0103BD9B24AB2002A69
:10C260000BDA0F220A40083A3C4B92089200D2188F
:10C2700003230B405268DB0007E092083849C032C4
:10C280009200525803210B408B40DA40D3B29B09F5
:10C29000DDB2012B0DD0381CFFF7A0FF022801D121
:10C2A00072B607E0002805D000210A1CFFF78AFFBC
:10C2B00000E01D1C2B4B2C492C4A18780B78128857
:10C2C000DBB2C0B20024934201D20133DCB284421B
:10C2D0000CD00C780B780021DBB2934201D20133F1
:10C2E000D9B2214B1970012D03D112E0012D2DD0AF
:10C2F0001F4C62B63878FFF773FF0223021C9A4383
:10C3000003D000210A1CFFF75DFF194B04209C425B
:10C310001DD0184F029A3B68E5005B191A60019A1C
:10C32000002A10D0002E0ED0039B111C1888124B2F
:10C3300044431868321C001903F021FB3B680020BD
:10C340005D19AE8003E00020988000E0042007B073
:10C35000F0BDC046742C002000ED00E018ED00E0B8
:10C3600000E100E0762C0020772C0020782C0020C3
:10C37000FFFF00006C2C0020702C002010B510492D
:10C38000104A0B7812789A4219D00F480B780A7825
:10C390000488D2B2DBB20020944201D90132D0B27B
:10C3A0000A4A087010880A4A58431268DB001018BD
:10C3B000084A1268D31899881B689847DFE710BDB0
:10C3C000762C0020772C0020782C0020742C002064
:10C3D000702C00206C2C002010B54378827801333B
:10C3E0009A1A041C501E82415242134022780020A7
:10C3F000934205D00B601823607843436068C018EF
:10C4000010BD0000154B02205968C905C90D24D084
:10C410001039CBB25AB2002A0BDA0F221A40083A6E
:10C42000C24082400E49521803210B4052688B4093
:10C4300007E092080B4BC0329200D25803230B4006
:10C44000DB00DA40D3B29B09DBB20020012B04D021
:10C45000033B5A425A410230801A704700ED00E017
:10C4600018ED00E000E100E08022194B9202DA674B
:10C47000D2218022174B520289005A5040395A501B
:10C4800001212F225960101C0138C046C046C04609
:10C49000C046C046C046C046C046C046C046C0466C
:10C4A000C046F1D1996000230B49101C0B60013884
:10C4B000C046C046C046C046C046C046C046C0464C
:10C4C000C046C046C046C046F1D1044A137070470A
:10C4D00004E100E0001001407C2C0020A42C00208E
:10C4E00070B50024224B5C649C64DC641C655C6059
:10C4F0009C60204B1E68731C39D01F4A1F4BD358B9
:10C500001F4A15685D1B2D022D0A24231D4A734303
:10C510001268D3185A68954215D3AD1AA4181A4A4E
:10C520001E6A1268002A09D09869D96990470028C4
:10C5300007D000210A1CFFF745FE02E09A69D8697E
:10C540009047731CE1D1114B114A197813788B4233
:10C5500005D10133DBB2022B00D100231370137815
:10C560000C4A9B009C5080220B4B52035A6070BDBA
:10C57000FC100140942C0020001001400405000034
:10C580007C2C0020842C0020802C0020902C00206B
:10C59000912C00209C2C0020FCE100E0F0B5C24969
:10C5A000C24A0B68C2488BB0039300781378984254
:10C5B00011D00133DBB2022B00D1002313701378AA
:10C5C000BC4A9B009F58039BFB181B021B0A0B6075
:10C5D0000123049301E000270497B74B1B680593E0
:10C5E000B64B1B780193B64B019A1B6802920993D4
:10C5F000B44B1B680093AC4B1B680893B24B1B7881
:10C600000793059B029A013AD2B20292FF2A68D0A0
:10C61000029AD500099A551929786A788A42F1D088
:10C6200018224A43AC7801316868C9B2641A82188A
:10C63000601E8441107864422140022803D01A1CF5
:10C6400003284CD141E02420526850439446009A7C
:10C650008018027D0692069C1A1C002C3FD01E1CDE
:10C660001C1C721C08D0664508D024227243009C12
:10C670001219341C166AF4E71A1C23E01A1CB4427F
:10C680000DD124225343009A9B181A6A531C06D1D9
:10C6900001268E4B9E60069B0793002308934368F8
:10C6A000066A9C4624235C43009BE4182662741CA3
:10C6B00008D024237343009C1B195E686446B4466B
:10C6C00064445C600023037509E0531C07D02423F5
:10C6D0005A43009BD21800231375126AF5E7131C06
:10C6E0009BE7754A089913606F4A11606946764A5C
:10C6F000097F1170049A002A09D1059A9B1A5A1EC3
:10C700009341DBB2029301235B429C462BE06D4ACE
:10C71000002015680122524294465A1C1FD0242240
:10C720005A43AA1851688F4205D26348C91B036057
:10C730005160012316E07F1A4018002114695160EE
:10C740001175166A8C4208D00399D4604118090209
:10C75000090A916061469C461162331CDDE7564A26
:10C76000136002330293544B1B680393544B1B68B2
:10C770000693544B1B6800934B4B1B680593524B1D
:10C780001B780793039B019A013AD2B20192FF2AC8
:10C7900000D19FE0019A0699D2008A1861460131C2
:10C7A00008D0604624214143009864464118086A35
:10C7B000844628E0117850788842E4D01820484315
:10C7C0005468013120189478C9B211708C4201D19B
:10C7D00000211170017844681D1C012961D12331A9
:10C7E0006143009D69180E7D1D1C002E59D185687E
:10C7F0008D60C568CD6005690D614069C8610798A5
:10C80000002800D08E608868059D314F451B2D02A1
:10C810002D0ACE68BD4202D8AD194D600AE0059DD3
:10C82000281A0002000A864202D9361A4E6001E038
:10C830000020486000208860C86001300875023818
:10C8400008622530061C66430099251C8E19591C68
:10C8500027D05843009D716828184568A94204D81C
:10C86000691A4160251C33621BE01D1C04932420BF
:10C870006843009F38184768B94206D9006AC91B47
:10C880000495471C05D0051CF1E77F1A4760281C5A
:10C89000049D716024214D43009930624D192C6232
:10C8A0001D1C2B1C7AE7C0467C2C0020902C0020FD
:10C8B000912C00209C2C0020942C0020882C0020FF
:10C8C0008C2C0020842C0020982C0020001001408B
:10C8D000FEFF7F002F4A1360039A934202D1029A0F
:10C8E000002A52D05A1C4ED02B4A2C4811682422C0
:10C8F0005343CB185D682A492A4B0C581B682A4EB3
:10C90000E21A1202120A3778033200920190002FC5
:10C910001FD18020D1274002BF00C851403FC851DD
:10C92000C02280272148BF0252008750076001279C
:10C930002F200F600138C046C046C046C046C046E2
:10C94000C046C046C046C046C046C046C046F1D1FB
:10C950003770009AAA4200D22A1CD318A8221B02C0
:10C960001B0AD2008B50019A8958091B0902090A37
:10C970001C1B24020331240AA14206D980220C4B3D
:10C9800092025A6001E0FFF76FFD0022094B1A7016
:10C990000BB0F0BD942C0020842C00200405000076
:10C9A000001001407C2C0020A42C002000E100E0BD
:10C9B000FCE100E0982C0020F7B5032401900E1C48
:10C9C000171C1D1C1C400720002C52D1002B50D0DE
:10C9D000FFF74AFD274B089A1A60274B1E70274B1A
:10C9E0001D602B1CB44205DA002201341A701A753E
:10C9F0002433F7E7242303225E43214BAD191A7039
:10CA0000204B15321D602B1C1833191C7A43002053
:10CA10006B6028706870AF7008359B188D42F6D136
:10CA200001228021C524FF25174B52421A60174B63
:10CA300082321870164B49031870164BFF3299500A
:10CA4000A4001A59AA433F3D2A431A51A122196052
:10CA5000019C1149D2008C50C424A4001D590F4AD6
:10CA60002A40C0252D022A431A510D4BCA580D4B9E
:10CA70001A60FEBD802C0020922C0020842C002007
:10CA8000882C00208C2C0020942C0020902C00203E
:10CA9000912C002000E100E000100140FF00FFFFAA
:10CAA000040500007C2C0020F0B5114B071C1C680D
:10CAB0000820002C1AD00138002A17D0002F15D0DA
:10CAC00000250C4B187885420FDA261C2434231CD1
:10CAD000243B1B78002B06D1012071703070B261AD
:10CAE000181C3D6002E00135EDE70420F0BDC046B2
:10CAF000842C0020922C0020F0B51F4B061C1C68D3
:10CB000085B00820002C34D01C4B01381B789E4285
:10CB10002FD204292DD924237343E3181C78013024
:10CB2000012C26D15B780027012B00D10F1C01922C
:10CB30000D1CFFF767FC124BC0001C6803A92418EA
:10CB4000201CFFF749FC031C0420002B11D00122FC
:10CB50000C491A700C4A5E608A5800209A60019A4B
:10CB6000DD605A6180221F61039B52036370074B93
:10CB70005A6005B0F0BDC046842C0020922C0020E5
:10CB80008C2C00200010014004050000FCE100E0B6
:10CB900037B5154B1A680823002A22D0134B197891
:10CBA000072388421DD21D3343439A5C0823012A80
:10CBB00017D1051CFFF726FC0D4BC0001C6801A90E
:10CBC0002418201CFFF708FC0423002809D0802229
:10CBD000023B0370019B45606370064B52035A6031
:10CBE0000023181C3EBDC046842C0020922C00203F
:10CBF0008C2C0020FCE100E010B5041C082904D0B6
:10CC00000020011C021CFFF7DDFA236860689847CA
:10CC100010BD000007B5044A009001916846082144
:10CC2000FFF704FB0EBDC046F9CB030048DF704799
:10CC300011DF704713DF704708B5FFF7F7FF0028D3
:10CC400003D000210A1CFFF7BDFAFFF797FB034B47
:10CC50001B78023B022BF0D808BDC046C42C002034
:10CC600008B5084B1878012803D1012901D10131F9
:10CC70001970002A04D00021101C0A1CFFF7A2FA28
:10CC800008BDC046C42C002010B50C4C1C21201C33
:10CC900001F086FC002803D000210A1CFFF792FA5D
:10CCA000201C07491C22002301F06AFC002803D045
:10CCB00000210A1CFFF786FA10BDC046C82C0020D0
:10CCC000A82C002007B50368013301D1002016E02D
:10CCD00001A800F061F9019B1A78012AF6D100221F
:10CCE0005988914205D006490868996800F0AEF964
:10CCF000021C019B5888801A42425041C0B20EBDAE
:10CD000008300000844684B0F0B585B01D1C0D933A
:10CD10006346C4B20A901B0C03A80F1C0B91161C8F
:10CD20000C92019300F038F9002C09D16A46374B78
:10CD30009288FF215A8001229D601A70197140E08B
:10CD4000012C14D16A46314B9288DF605A80F21967
:10CD500052199A60A5221A705A321A710E9A1E61DF
:10CD60005D619A612A4B1C70FFF78EFF49E0032C2E
:10CD70000ED1039A254B1178197051889268598009
:10CD80009A60AA22DF601A711E615D61A93A18E0FB
:10CD9000022C19D1039A1D4B1178A52905D1002227
:10CDA0005A809A60FF321A7004E0197051889268B4
:10CDB00059809A60FF221A710022DA601A615A6162
:10CDC0000132134B1A70CFE7052C09D101F096F808
:10CDD000002803D000210A1CFFF7F4F903220EE01B
:10CDE000042C09D10022094B5A809A60FF321A7034
:10CDF000039A12791A71B7E7062C02D10422044B68
:10CE00001A7005B0F0BC08BC04B01847A82C00206C
:10CE1000C42C00201FB5002101A80C22FFF7C8F97F
:10CE2000074B019301F076FB002806D1FF2305494B
:10CE30009B0201A84B6001F08FFB05B000BDC0460E
:10CE400061CC0300C82C002010B500F073FA002854
:10CE500005D100F085FF041CFFF7EEFE201C10BD7D
:10CE600010B5FFF7E5FE002803D000210A1CFFF7EC
:10CE7000A9F90D4B1968002301229A40114201D0F3
:10CE80000A48C2670133202BF6D1094C2068FFF70E
:10CE9000D1FE002803D000210A1CFFF793F9206877
:10CEA00000F0B6F810BDC04600E100E004E100E08B
:10CEB0000830000007B501A800F06EF8019B0120C2
:10CEC0001A78A52A04D01879AA3843425841C0B22A
:10CED0000EBD10B500F06AFC00280BD0642001F0F4
:10CEE0002FFA00F0D5FB002809D000210A1CFFF71B
:10CEF00069F904E000F038FC021EEFD111E000F007
:10CF000055FC002803D000210A1CFFF75BF900F054
:10CF10000BFC0022041E944203D0111CFFF752F9AF
:10CF2000221C101C10BD10B588B003AC201C0021C1
:10CF30001422FFF73DF902232370002304340093E9
:10CF400003980ECCFFF7DEFEFFF776FE002008B058
:10CF500010BD13B5041C01A800F01EF8019B1A783F
:10CF600022705A8862809A68A2601A792271DA68FF
:10CF7000E2601A6922615A6962619B69A36113BD0B
:10CF8000021C4378180293781B040343107818435B
:10CF9000D3781B061843704770B51B4C627A257A0C
:10CFA000A37A12022A431B0413431A1CE37A1B06BA
:10CFB0001343FF22934301D1046024E0061C201C8C
:10CFC000124D2378A2782B70E37808301B021343AC
:10CFD0006B8023792B71FFF7D3FFA860201C0C30E6
:10CFE000FFF7CEFFE860201C1030FFF7C9FF286173
:10CFF000201C1430FFF7C4FF6861201C1830FFF7B5
:10D00000BFFFA861356070BD00FC0300D02C00207C
:10D01000F0B5031C186880F308885868FF2464B2D0
:10D02000EFF30585002D01D1A6460047251C061CFF
:10D0300021273FBAF0B40024002500260027F0B4D1
:10D04000F92040B20047C046F0BDC04630B5002AC6
:10D0500001D0138800E00B4B051C41188D420FD006
:10D060002C785BBA9BB263401A1CDBB21B0953409D
:10D07000180343409BB2DAB2520153400135EDE749
:10D08000181C30BDFFFF000018DF7047704700001C
:10D09000F8B50D1C141C1E1C012902D003290AD04E
:10D0A00019E0114B1B78052B15D1104B04201B6880
:10D0B000002B0DD10FE00C4F3B78022B0BD10C4B0A
:10D0C0005B689847094B3D701B68002B03D0281CF8
:10D0D000211C321C9847002C04D00021201C0A1C63
:10D0E000FFF770F8F8BDC046F42C0020EC2C0020AF
:10D0F0001C2D0020012200B5074B89B01A7003AB2C
:10D1000004321A70079A039800920499059A069BB4
:10D11000FFF7F8FD09B000BD002D0020032300B586
:10D1200089B003A80370074B1B884380064B079800
:10D1300059689A68DB6800900398FFF7E3FD0020C8
:10D1400009B000BDF22C00200C2D0020012200B5FA
:10D1500089B003AB1A70084A12885A80074B0398AB
:10D160001B680093064B59689A68DB68FFF7CAFD95
:10D17000002009B000BDC046F22C0020083000009D
:10D180000C2D002010B588B003AC201C0021142207
:10D19000FFF70EF804232370002304340093039850
:10D1A0000ECCFFF7AFFD08B010BD0000022208B59D
:10D1B00009480A4B18600A4B1A700A4B1968F02389
:10D1C0009B02591A490801F0EBF9002803D000210D
:10D1D0000A1CFEF7F7FF08BD042D0020AC2D00202F
:10D1E000F42C002008300000022208B50748084B44
:10D1F0001860084B1A70084B196801F0D1F9002823
:10D2000003D000210A1CFEF7DDFF08BDF82C00202A
:10D21000AC2D0020F42C0020B42D002070B5164C4D
:10D22000164D88B0201CE96801F0BAF9002803D037
:10D2300000210A1CFEF7C6FF114B201C5968EA6842
:10D24000002301F09DF9061E12D103AC311C1422FB
:10D25000201CFEF7ADFF0B4B22691B8826706380F4
:10D26000EB680398E36000926168A268FFF74AFDEB
:10D27000301C08B070BDC046F82C00200C2D0020DA
:10D28000042D0020F22C002038B50F4B08221D7809
:10D29000002D17D10D4C2068FFF77AFC002803D031
:10D2A000291C2A1CFEF78EFFF0212068002289032A
:10D2B000FFF722FC0022041E944203D0111CFEF74B
:10D2C00081FF221C101C38BD002D0020A82D00203D
:10D2D000F0B51F1C032385B0061C01909408684616
:10D2E0000D1C009302910394FFF7CEFE00281ED080
:10D2F00080235B019D4212D801236846009301966A
:10D3000002950394FFF7C0FE002810D1032368465E
:10D310000093019602950394FFF7B6FE07E0F01B19
:10D32000E91B3A1C3B1CFFF7D3FF0028E4D005B0F3
:10D33000F0BD0000F0B5002785B000210C2201A847
:10D34000FEF736FF1E4B1F4D01931F4B01A81F70A8
:10D350001E4B291C1F8001F0FFF81D4E041EBC420D
:10D3600001D037702AE01B4B1A686A601A4A111CF8
:10D3700081CD81C11968F0239B025B1A5B08174DB0
:10D380005B185360281C211C154AFFF78DFB0028F1
:10D3900003D0211C221CFEF715FFF0212868890309
:10D3A0000022FFF7A9FB002803D000210A1CFEF78A
:10D3B00009FF00200B4B18600123337005B0F0BD4E
:10D3C00091D00300F82C0020F02C0020F22C00203B
:10D3D000F42C002008300000042D0020A82D00208F
:10D3E000F5D00300B02D0020014B18607047C046F7
:10D3F000EC2C0020284B70B5191C426831CA31C191
:10D4000012680A6019784A0702D506248A0740D1B3
:10D4100003255868062428423BD19E682E4238D105
:10D42000DA682A4235D1F02330181C4D82182A6060
:10D4300024199B019E422CD8F02319489B02CE0749
:10D440000AD501685B1A9A4223D8164B164A1A600D
:10D45000164A5A60164A0EE000681B1A5B089A4288
:10D4600017D8104B134A1A60134A5A608A0701D51D
:10D47000124A00E0124A9A60124B08241B78012BD2
:10D4800007D1FFF701FF041E03D1064B28681B6874
:10D490009847201C70BDC0460C2D0020B42D0020E4
:10D4A000083000001C2D0020E9D1030085D10300C5
:10D4B0004DD10300ADD103008DD003001DD1030079
:10D4C0001DD20300F42C0020F8B5041C0E20002C03
:10D4D0002ED0A36802309B072AD1164B1B78052B50
:10D4E00025D16368144D154F9E002B683A68F318D8
:10D4F000934204D901235B422B60043818E0FFF704
:10D50000C3FE002814D10E4BA1681868321C2B688A
:10D5100001F036F800280BD12B680930F6183B686B
:10D520002E60F61A731E9E417642304000E00820BD
:10D53000F8BDC046F42C0020B02D0020B42D0020F2
:10D54000AC2D002070B50C4B1C68002C10D10B4E7C
:10D550003378042B0CD10A4D0A48297800F058F989
:10D56000002802D10523337003E02C70041C00E076
:10D570000824201C70BDC046B02D0020F42C0020D3
:10D58000F02C0020282D0020F8B5154B1A78032A1E
:10D5900002D0042A02D01BE004221A70114B1C682E
:10D5A000002C15D1061CFFF76FFE002812D17368FE
:10D5B0000D4F9D003B785A19802A0DD80B482A1C24
:10D5C000C018B16802F0DBF93B78ED183D7004E05B
:10D5D000082402E0041C00E00924201CF8BDC04619
:10D5E000F42C0020B02D0020F02C0020282D00204D
:10D5F00038B50E4C08202378052B16D10C4D0D4B59
:10D600002A681B68082093420FD106232370FFF776
:10D610003BFE002809D1084B29681B68586800F0B8
:10D6200041F9002801D10723237038BDF42C0020D4
:10D63000B42D0020B02D0020AC2D002008B5094BE2
:10D6400008201B78072B0CD1074B1868FFF7A0FAAE
:10D65000002803D000210A1CFEF7B4FD034B9B6891
:10D66000984708BDF42C0020A82D00201C2D002078
:10D67000062200B589B003AB1A70079A039800928E
:10D680000499059A069BFFF73DFB09B000BD000019
:10D69000F0B58DB005A8FFF75CFC089C002C3BD0D2
:10D6A00080230B9D5B01E318AB4229D91C4BEE187C
:10D6B0001C4B76081B68A34209D3802372005B01D0
:10D6C000D1185019331CA21AFFF702FE23E0802361
:10D6D00001275B01F31801A80197029303930497B4
:10D6E000FFF7D2FC002816D1802301A85B01019727
:10D6F000029303930497FFF7C7FC00280BD1DCE7E4
:10D70000012301938023A4085B0101A802950393E0
:10D710000494FFF7B9FC041C201C0DB0F0BDC046FA
:10D7200000F0FFFF0830000000B58DB005A8FFF73E
:10D7300010FC0998002812D0089A0B9B002A05D1EA
:10D74000084B1A68F0239B029B1A5B08D31800222F
:10D750008008039001A801920293FFF795FC0DB099
:10D7600000BDC0460830000000B58DB005A8FFF729
:10D77000F0FB0998002815D0089A0B9B002A05D1C8
:10D78000094B1A68F0239B029B1A5B08D3180322EB
:10D790000192F02280089202049001A80292039361
:10D7A000FFF772FC0DB000BD0830000010B58CB062
:10D7B00005A8FFF7CEFB0898002823D080230B9CF8
:10D7C0005B01C318A34210D90F4B1B68834218D3C7
:10D7D00080210E4B4901E3185B085A0014195118B7
:10D7E000821A201CFFF774FD0CE0032301938023B1
:10D7F00080085B01049001A802930394FFF744FCA6
:10D8000000E00E200CB010BD0830000000F0FFFF5B
:10D8100038B50B2901D8092036E003891B4C0433A5
:10D820005B00C3180233C21A5218D2B22270012A06
:10D83000F1D941188B42EED8191C041C144802F08F
:10D840009EF8144B144A1988914203D025880B2066
:10D850008D4219D15B88934203D062880B209A4293
:10D8600012D1002321898B420BD25A00A21852896F
:10D870000A48824207D00A48013300888242F2D126
:10D8800001E00B2000E0002038BDC046C22D002082
:10D89000B82D002080100010FFFF0000FEFF0000E8
:10D8A0000C30000008B50022FFF7D0FB021C06492F
:10D8B0004B7808781B020343D31A5A1E93410B205E
:10D8C0005B42184008BDC046B82D0020021C4378BA
:10D8D000180293781B04034310781843D3781B066F
:10D8E0001843704770DF704771DF704773DF704710
:10D8F00074DF704776DF70477ADF70477CDF7047F0
:10D900007FDF704782DF7047A7DF7047A8DF70476F
:10D91000A9DF7047AADF704767DF704700B50C28A2
:10D9200014D801F077FF15131313131309130713FA
:10D93000130D0B0002200CE003200AE0042008E095
:10D94000081F414248410623181A02E0062000E061
:10D95000012000BD002108B50A1CFEF733FC08BDFC
:10D96000002108B50A1CFEF72DFC08BD10B5041CEB
:10D97000081C0321FFF7D2FF0321021C201C01F029
:10D9800027FD002803D000210A1CFEF71BFC10BD58
:10D99000F0B5114B8FB09B7901AE02ACB3700F4B59
:10D9A000071C0021201C302200253380FEF700FCDC
:10D9B0000223201C2370291C013BA570E7702381E2
:10D9C000E66001F019FAA84203D0291C2A1CFEF7D0
:10D9D000F9FB0FB0F0BDC046D82D00203015000077
:10D9E00038B50C1C151C03281DD004282AD1002989
:10D9F00008D0154B1888154B984223D01321FFF7F8
:10DA000079FF19E0101C00F02FFC002803D0211C26
:10DA1000221CFEF7D7FB0E4B1B68AB4212D10D4800
:10DA20000321012206E0081C0121FFF777FF0121F5
:10DA3000021C084801F0CCFC002803D000210A1C7D
:10DA4000FEF7C0FB38BDC046602C0020FFFF000081
:10DA5000C82D0020D82D0020F0B52D4B8DB01D789D
:10DA60000193002D51D12B4C291C201C1822FEF7AC
:10DA70009FFB294B1E78002E2CD0291C102204A8B5
:10DA8000FEF796FB254804A91022254F01F068FFF8
:10DA9000061E08D10520FFF77BFF01236760237076
:10DAA000267226821EE01D4B08AE029301233371BD
:10DAB00003AB089301230420337302AB0A9303974B
:10DAC000FFF766FF0223237226332570E660238268
:10DAD000658208E00620FFF75BFF2823267066605A
:10DAE000267223826682201CFFF700FF002803D0E5
:10DAF00000210A1CFEF766FB8021A022094BD205FB
:10DB0000C902D1500123019A13700DB0F0BDC04677
:10DB1000C42D0020542E0020C32D0020152E0020DF
:10DB20000E2E00200C05000070B5041CAEB001F0F4
:10DB300055FA8048211C01F07DFC2388142B00D16C
:10DB4000B1E02DD8102B3AD008D8022B00D0EEE04F
:10DB5000794B00211888FFF7DFFEB1E0112B3FD091
:10DB6000132B00D0E3E0754C02AE211C06A807225F
:10DB700001F005FFE11D301C102201F000FF211C07
:10DB80000EAD1831281C1C2201F0F9FE6A4B8521CC
:10DB900018886B4A08AB0C960B95FFF7B1FE8FE027
:10DBA000512B6CD005D8182B00D18CE0192B49D003
:10DBB000BDE0522B00D186E0552B34D0B7E0A02336
:10DBC0008021604ADB05090399508021043AC9028B
:10DBD0009950A288584B1A8000225B4B1A70A6E01D
:10DBE0008023322108AA1380584B80201960A1237A
:10DBF000A0210003DB00C9054F4CC85020880EA9A6
:10DC00000123FFF787FE002803D000210A1CFEF73E
:10DC1000D9FA4F4B1B78002B01D1FFF71DFF0123D1
:10DC20005B42238083E0A479002C00D07FE0424B4C
:10DC300013211888FFF75EFE002800D177E0211C31
:10DC4000221C6FE0A379002B71D13F4A13703F4B28
:10DC50001A68511E196000290ED10EAC201C142226
:10DC6000FEF7A6FA052323702369043400930E9867
:10DC70000ECCFFF747F85AE0FFF7EEFE57E0A37926
:10DC8000002B54D0A27A043A022A50D80EA9022BB3
:10DC900000D001230B70C1235B008B80264B1888BA
:10DCA000FFF734FE0CE0254AE089538D00219842AD
:10DCB00001D1111C1831A08807320023FFF722FE82
:10DCC000002834D02CE01C4B224D1C88AC422CD0B8
:10DCD000214B201C1B78002B1BD018490822343103
:10DCE0000123FFF715FE021E19D1111C201C02236F
:10DCF000FFF70EFE021E12D12A1C201C0C21FFF77A
:10DD000003FE0222154BC318934310D0082804D1F8
:10DD10000DE0191C1A1CFFF7FBFD021E07D0101C9A
:10DD200000210A1CFEF74EFA01E00822F7E72EB0A8
:10DD300070BDC046D82D0020602C00200E2E002083
:10DD4000082E00200C050000C42D0020642C0020AB
:10DD50006C2E0020FFFF0000C32D0020FECFFFFF30
:10DD60000023584A30B51370574AE9211370A02395
:10DD70000322DB05C9005A50544989B05A50A122E8
:10DD80008021D200C902995080210903995050483E
:10DD900001F0DAFC002800D091E04E48FFF724FBA8
:10DDA00000F026FA051E00D089E04B4800F0B8FCD0
:10DDB00001AC002803D10122484B1A7015E0201C49
:10DDC000FFF792FD002803D0291C2A1CFEF7FAF960
:10DDD000637800200133211C6370FFF783FD002866
:10DDE00003D000210A1CFEF7EDF96A4611233C4DD1
:10DDF0001370281C01F0CCFD291C82B26846FFF785
:10DE00007DFD002803D000210A1CFEF7DBF9201C51
:10DE100000210822FEF7CCF90C2300252380DB1813
:10DE200063807933FF33201CA580E380FFF764FD16
:10DE3000A84203D0291C2A1CFEF7C4F90021201C8B
:10DE40000C22FEF7B5F908232380264B2648636091
:10DE5000264B211CA36001F025F9002803D00021E6
:10DE60000A1CFEF7AFF9201C00211C22FEF7A0F9C6
:10DE70001F4B002563608023DB01A3600323237312
:10DE80001C4B201C0195E58125746561A36101F09F
:10DE900065F8A84203D0291C2A1CFEF793F9E02359
:10DEA000154A11780B400C210B4314318B4313702E
:10DEB0000723537009339370FFF7CEFD002009B09C
:10DEC00030BDC0466C2E0020D42D00204C07000031
:10DED00029DB0300E1D903000E2E0020C32D002012
:10DEE000C0F9030075DF0300D82D002055D90300C9
:10DEF000CD0C000061D90300082E0020012210B5CE
:10DF0000184B1A70184B1888184B984209D01321D7
:10DF1000FFF7F0FC00281AD000210A1CFEF752F986
:10DF200015E0134B1A781C1C002A10D0FFF7E0FCF8
:10DF3000002803D000210A1CFEF744F98021A12308
:10DF4000A022DB00C902D205D1500023237001F0CA
:10DF50003DF8002803D000210A1CFEF733F9002009
:10DF600010BDC0466C2E0020602C0020FFFF00007A
:10DF7000C42D0020F0B50B7889B0092B00D924E11D
:10DF8000051C181C0C1C01F04FFC2C003300460033
:10DF90000A001300230007010F014A001501FFF7D3
:10DFA00027FB0421FFF7BAFC0421021C281C2FE0E8
:10DFB000FFF7A4FF002803D000210A1CFEF702F996
:10DFC000FFF73CFB002800D1FFE0FFF751FBFCE02E
:10DFD000FFF794FF0028F8D000210A1CFEF7F2F8A2
:10DFE000F3E701227A4B1A704B681A78794B14E0E8
:10DFF0000226774B1E704B681B78012B00D0E4E0A3
:10E00000FFF7A0FA311CFFF789FC021C281C311C09
:10E0100001F0DEF9D3E003226D4B1A70D5E06C4BB2
:10E020001E78022E2DD0032E54D0012E00D0CCE02D
:10E0300004AF00211022381CFEF7BAF8654B0C2201
:10E040001B7801A800213B70FEF7B2F8032202976B
:10E050000192237A0C2BD9D16468201CFFF736FC7F
:10E060007860201DFFF732FCB860201C0830FFF7F5
:10E070002DFCF86001A8FFF7BDF9002800D1A4E04D
:10E08000C0E70B7A0321194010D05A1A0432D2B2D9
:10E090009446181C00276268461C1754F0B260456D
:10E0A000F8D10133DAB2531A0333237201230493F4
:10E0B000636804A80693237A9B080593FFF764FA24
:10E0C000002800D181E00221FFF728FC0221021C78
:10E0D000281C9DE7087A304203D0281C311C321CD2
:10E0E00096E73D4E0190311C00F096F8011E0FD1CD
:10E0F0006168019A306801F042FC019800F0F0F884
:10E10000011E05D101A9301C00F0F8F8011E01D054
:10E11000281C3EE004230493019B04A89B0805935C
:10E1200033680693FFF7D0F9071E08D12B4A237AEC
:10E1300011685B1813603268294B1A6045E00928A2
:10E140001DD1264B217A1A6889181960254B1B7836
:10E15000002B3AD0244A1388141C013B9BB2138035
:10E16000002B32D1281C01F0FBF8002803D000213D
:10E170000A1CFEF727F81D4B1B88238025E030681A
:10E1800000F072F8011E02D0281CFFF7EFFB281CDC
:10E19000391CFFF7EBFB18E00122124B1A708B8839
:10E1A000124A1380104A03E000230E4A13700F4AEC
:10E1B00013800AE0094B281C196801F097F8002821
:10E1C00003D000210A1CFDF7FDFF09B0F0BDC046D9
:10E1D000D42D00200D2E0020D02D0020502E002008
:10E1E000C82D00204C2E0020CC2D00204A2E0020CF
:10E1F0000020064B064A1870064B1A6008229860E9
:10E200005A60D8601861586198617047AC2F00203F
:10E21000702E0020902F002030B50E2200291ED035
:10E220000025104B0D605C680A3AAC4217D00832EA
:10E23000202814D82420DA68013C0132DA601A69F7
:10E240005C6050431C682018086001219140986967
:10E2500001320143996107210A401A612A1C101CEE
:10E2600030BDC046902F0020F7B51C4B061C9A68A5
:10E270000420002A30D007215C691868A21A0A40DD
:10E28000111C24254D434519AE420DD10C1C012112
:10E29000A140986941400020996199699F68019166
:10E2A00059688C46391C0CE0072501312940A142F0
:10E2B000E7D11020F1E700290CD00722651C0139B5
:10E2C0002A40012696406546321C019EED196D1AC2
:10E2D0001642F0D099605D60FEBDC046902F0020D0
:10E2E00005490B6909685A1E07231340242253432A
:10E2F000CB18186200207047902F002030B50E22F6
:10E30000002818D0002916D00C4B0A3ADC68002CE3
:10E3100011D09A68013C01329A602422DC605C6969
:10E320001D686243AA180260126A01340A6007225B
:10E33000144000225C61101C30BDC046902F0020AC
:10E3400082B00190019B002B12D0019B0948013B38
:10E3500001930138C046C046C046C046C046C046CC
:10E36000C046C046C046C046C046C046F1D1E9E7F7
:10E3700002B07047E703000029DF704728DF7047CD
:10E380000B1C37B5021C181CC9685D688C00197815
:10E390000095034D0C3064595B69A04737BDC046FA
:10E3A000A430002038B51823184C22785A43A218FC
:10E3B000151C13790835E868012B0DD0032B23D1E8
:10E3C00080235B05196989B201F038FA104B1B688C
:10E3D000C018FFF7D3FF12E00D4B6D681B68916901
:10E3E00092689B024019D21AC918C018094B9A4268
:10E3F00001D8920801E080225200FFF7BDFF0028FB
:10E4000003D10123A37000E00F2038BDB02F0020FE
:10E41000B0300020FF030000F8B5144D061C6F78E3
:10E4200004200A2F20D02C783C19E4B2092C01D901
:10E430000A3CE4B2182044432C19201C0830A26185
:10E44000021C26710832C0C9C0C2A360069B43608B
:10E45000AB78002B01D0002003E0FFF7A3FF1128C9
:10E46000F9D06B7801336B70F8BDC046B02F002037
:10E4700038B5264A9378141C002B45D000219170A2
:10E48000022808D003283FD1182311780D205943C2
:10E490005118043136E0157818226A431C48A21836
:10E4A00003689268013303609B02934219D30160B1
:10E4B0006378013B63706B1CDBB2092B01D92B1C09
:10E4C000093B237018235D436519291D0020FFF7C0
:10E4D00057FF002302212B71AB6029616B61AB6197
:10E4E000EB606378002B0FD0A378002B0CD1FFF7E3
:10E4F00059FF002808D0112806D018232178594345
:10E5000061180431FFF73CFF38BDC046B02F002032
:10E51000B030002000230C4A13600C4A1370537073
:10E520009370131DF4320020022118705860D960D6
:10E5300018615861986018339342F4D1044B186005
:10E54000044B186058607047B0300020B02F002096
:10E55000AC300020A430002010B5074C0422236802
:10E56000022B07D05A1C0B6022600168034A9B00F3
:10E5700099500022101C10BDAC300020A4300020A7
:10E5800037B5CC180C43051C1020A40707D11C1C60
:10E590000F38131C00940A1C291CFFF73DFF3EBDD9
:10E5A00013B50022041C0B1C0092211C0320FFF752
:10E5B00033FF16BD00220121044B1A70044BD960B1
:10E5C0005960A021C9005A507047C046B830002099
:10E5D00000200040012307B5054A6846D360054A7C
:10E5E00013706A4602331370034B1B68984707BDCC
:10E5F00000200040B8300020B430002013B5264C75
:10E60000264BE268002A14D0C122920099580422B5
:10E6100011420ED00021E160A321C9005B582049BE
:10E62000DBB20B8069460B711E4B0A701B68684693
:10E630009847236A002B16D0C123184A9B00D35851
:10E640001B0610D50022144B1A62174B1B78DBB245
:10E65000934208D0022B04D9032B04D1FFF7AAFF61
:10E6600001E0FFF7B7FFA26A0C4B002A13D0C122CA
:10E6700092009A5892050ED50021074A6846916289
:10E680009021C9005A585A50022369460B70054B15
:10E6900001921B68984713BDFC20004000200040F9
:10E6A000682C0020B4300020B830002070B500285D
:10E6B00021D10D1C09680E2300291AD00F4CA1424C
:10E6C00010D0631A3B2B09D80B1C4A1E3C339342D3
:10E6D00008D01E78601AC654013BF8E7201C3C2283
:10E6E00001F04DF9201C3C210022FEF7AFFC002375
:10E6F000A0872B6001E001230B6070BD807F0020AC
:10E700000323064A5B429E4502D1EFF3098101E0F3
:10E71000EFF308818869023800781047ADE60300FE
:10E7200070B50E23002812D00A4C061C3C21201C78
:10E730000022FEF78BFCA58F0B23854207D1301CEE
:10E74000211C3C2201F01BF900230135A587181C70
:10E7500070BDC046807F002013DF704760DF7047C8
:10E7600018DF704710B586B0041C002102A81022E3
:10E77000FDF71EFD02230293002C08D002A8FFF72C
:10E78000EFFF002803D000210A1CFDF71BFDF0203D
:10E790008002FFF7E1FF002803D000210A1CFDF7EB
:10E7A00011FD082015494822154B00F0A9FF00284B
:10E7B00003D000210A1CFDF705FD08226846002150
:10E7C000FDF7F6FC6B4601221B78002413436A46D2
:10E7D000684601941370FFF7C1FFA04203D0211CCB
:10E7E000221CFDF7EFFC074800F0B8FF002803D01B
:10E7F00000210A1CFDF7E6FC06B010BD4C340020D9
:10E80000ADF7030009E8030008B5FFF731FE08BDC6
:10E8100008B508201421054AFDF7E4FC002803D0C0
:10E8200000210A1CFDF7CEFC08BDC046FC320020CA
:10E8300070B5012405258440A026A123F605DB0040
:10E84000F450C820FFF77CFD044BC820F450013D74
:10E85000FFF776FD002DEFD170BDC0460C0500001E
:10E8600008B5031C0A1C0248191CFDF7ABFC08BDC7
:10E87000EFBEADDE8023F7B5684DDB055C59122293
:10E88000B13C63425C41E4B2111CA0230320C131BE
:10E89000FF31DB058900C8500121A1209140C00053
:10E8A00001321950192AEFD180215D4AC9029950CD
:10E8B00080210903995080214903995080218903BF
:10E8C00099508021C90399508021090499508021D1
:10E8D000802649049950F6057359171C002B02D065
:10E8E0001220FFF7A5FF002C01D0002373514D4BE0
:10E8F0001A68F0239B029A4204D00020011C021CDB
:10E90000FDF760FC80235B051A698023DB009A42D7
:10E9100004D00020011C021CFDF754FC424B0020D7
:10E92000009303210522414BFEF746F8002803D04F
:10E9300000210A1CFDF746FCA025E8233C4ADB0029
:10E94000ED05EA50FEF766FAFEF7B4FA002820D08B
:10E9500080235B03EB51FEF7BCFA002803D00021B3
:10E960000A1CFDF72FFC01206040FFF7FBFEFFF7BC
:10E970004FFFFEF7D8FA002803D000210A1CFDF74C
:10E9800021FC8021A123A0224903DB00D205D15024
:10E9900005E001206040FFF7E5FEFFF739FF002C9E
:10E9A00002D01320FFF744FF224D2868FEF78AF9B2
:10E9B000002802D01420FFF73BFF002C10D0A02429
:10E9C0008026E40576031520E651FFF731FFFEF7B8
:10E9D0003BFA00280AD000210A1CFDF7F3FB05E0F2
:10E9E0002868FEF76FF9002803D1E8E7A123DB00D0
:10E9F000E6502868FEF766F9002807D0FEF75AFAB5
:10EA0000002803D10B4B1868FEF72AFABFF34F8F8B
:10EA1000094A0A4BDA60BFF34F8FFEE71C0500007E
:10EA20000C0500001410001015CC0300BC300020B1
:10EA30000C000300083000000400FA0500ED00E0BF
:10EA400072DF704779DF70477DDF704765DF7047A1
:10EA5000F0B50024061C251C87B00C9F00933B7862
:10EA600003910292019333889D423ADA7368A900B8
:10EA70005918042205A800F082FF04AB05A8D91C90
:10EA80000022FFF7E3FF002835D104ABDB78029AC0
:10EA9000934222D16242624102993B785200591856
:10EAA0008A181F2A1BDC002C07D169469A1C3A7071
:10EAB0000133009A097BDBB2D15404ABDC1C3A78F9
:10EAC000009B05A89A18211CFFF7C0FF002812D14F
:10EAD000237801243A78D3183B700135C3E70C2022
:10EAE00009E00020844206D03B78019A013B9B1A42
:10EAF0000199009A535407B0F0BDF7B5089E171C52
:10EB000000960222051C1C1CFFF7A2FF002806D15C
:10EB10000096281C391C1022231CFFF799FFFEBD0C
:10EB20000023F0B51370037889B0061C0D1C141C6B
:10EB3000002B03D1B378002B4BD029E043780C2075
:10EB40001D2B00DD50E10E2704ABFF181D23881C90
:10EB5000391C3B80FFF778FF002800D044E1337870
:10EB6000022B03D13B8809221D2B08D97378002B77
:10EB700003D09BB208221D2B01D908223B88DBB2AF
:10EB8000591C29706A70227802329B182370D1E7D1
:10EB900023780C201B2B00DD26E10E2704ABFF1889
:10EBA000381CFFF74FFF002800D01DE123785A1CC6
:10EBB00022700322EA5423785A1C22701922EA5444
:10EBC00023783A88EB181A70120A5A7023780233A5
:10EBD0002370F378002B0ED023785A1C2270022267
:10EBE000EA5423785A1C22700122EA5423789A1896
:10EBF0002270F278EA547368002B12D01A782378C6
:10EC00000C201C2B00DDEFE0591C21700221E9547F
:10EC10002378591C21700A21E9542378591C21704A
:10EC2000EA543389002B03D1338A002B16D00AE033
:10EC3000301C00940830022106222B1CFFF75DFFD8
:10EC40000028F1D0D0E0301C0094103003210722BE
:10EC50002B1CFFF752FF002800D0C5E0338B002BA0
:10EC60000AD0301C00941830142115222B1CFFF7F9
:10EC700044FF002800D0B7E0336A002B49D0227847
:10EC80000C20049206321F2A00D9ADE019880538FD
:10EC9000052900D8A8E0554A554F8A1892B2BA42C1
:10ECA00000D8A1E05A880392052A00D89CE04F4F73
:10ECB000BC469444674602AA97819789BC464C4F4C
:10ECC000BC4500D890E04B4FB94205D0039ABA42F8
:10ECD00002D0914200D987E0049A0499013222704F
:10ECE00005226A542278511C21701221A9542278DD
:10ECF0001988AA181170090A517022780232D2B20A
:10ED000022705988AB181970090A59702378023398
:10ED10002370776A002F29D03A792178931C881CB8
:10ED2000DBB2C3180C201F2B5EDC4B1C033223709C
:10ED30006A5423785A1C2270FF22EA5423783A88B6
:10ED4000EB181A70120A5A7023780233DBB2237060
:10ED5000BA88002A0AD0B9680538002944D0E818D2
:10ED600000F00DFEBA882378D3182370331C2C339F
:10ED700005931B78002B01D1002035E0B36A002BEE
:10ED800031D000230493059B049A1B789342F3D956
:10ED90000C27049B22785F43B36A511CDF193B792F
:10EDA00021700333AB5423785A1C22701622EA5484
:10EDB00023783A88EB181A70120A5A7020780230B9
:10EDC000C0B22070BA88002A09D0B96800290AD0D8
:10EDD000281800F0D4FDBA882378D3182370049B38
:10EDE0000133DBB2CEE7072009B0F0BD7FF3FFFFB0
:10EDF0007DF30000FFFF0000F0B593B06B466A465C
:10EE00009E1D0023D71D0D1C33703B70984204D00B
:10EE1000C3785B070FD407201DE0041C002D03D02E
:10EE2000EB78002BF7D10EE02A1C31783B78201CC0
:10EE3000FFF706FE0FE002A9321CFFF771FE02ACDD
:10EE40000028EBD007E03A1C281C0AA9FFF768FE4F
:10EE50000AAA0028E9D013B0F0BD75DF704776DF4D
:10EE600070477ADF70477BDF7047000037B5174B7C
:10EE70001888174B984227D0164A174D13782C1C28
:10EE80000133DBB21370297B994208D31349FFF792
:10EE9000E4FF002818D0AB69002B14D114E0002344
:10EEA00013702B7C002B08D03B21FFF7D8FF0028E4
:10EEB00003D0AB69002B00D098476369002B03D0C7
:10EEC000002201A80270984737BDC046C034002018
:10EED000FFFF00009E340020A0340020C234002038
:10EEE00037B5184B184A5B881188184C184D994251
:10EEF0000CD852889A4209D36369002B03D00122AF
:10EF000001A80270984700232B7037BD2B78002B87
:10EF100005D06369002BF6D001A80022F1E70D4B64
:10EF20001B78002B01D1616800E0A1680A4B002228
:10EF30001868FDF7E1FD0028E5D0A369002BE1D1B9
:10EF4000E1E7C04696340020C2340020A0340020FF
:10EF5000943400209E340020BC340020144938B57D
:10EF6000021C0B1C32CA32C332CA32C31268114CA3
:10EF70001A600022104B01681A70201C914213D0B5
:10EF8000083200F0FCFC201CFFF76BFF00280ED1BC
:10EF900001220021094B52421A80094B094A0A48B2
:10EFA0001970FDF781FD02E0FFF75DFFEEE738BD68
:10EFB000A0340020C234002094340020C03400204B
:10EFC0009E3400206DEE0300BC34002008B5024BD7
:10EFD0001868FDF7DDFD08BDBC34002010B50388BE
:10EFE000112B19D002D8102B05D043E0122B3AD0A8
:10EFF000502B21D03EE0011C82881F4B16311A8015
:10F000001E48082200F0BBFC00221D4B1A701D4B4D
:10F01000DB8993422ED12BE00122174B52421A80FA
:10F020000022174B1A70184B1868FDF7B1FD002825
:10F0300020D0144B9B6912E0124CC188E2899142A6
:10F0400018D1C38B022B15D10130C37FDB070FD43E
:10F050000D4B1868FDF79CFD00280BD0A369002B11
:10F0600008D0984706E0811D0822044800F087FC7C
:10F07000FFF736FF10BDC046C03400209634002094
:10F080009E340020A0340020BC340020A0DF704754
:10F09000A2DF7047A5DF7047A6DF7047A8DF704783
:10F0A00063DF7047F0B50E2499B0002800D10EE15F
:10F0B000002900D10BE14B68002B00D107E10123AF
:10F0C0005B420380029101908249102208A800F05F
:10F0D00056FC0A21804B06AD2B8004AB08A8C9184A
:10F0E000FFF7DEFF041E00D0F1E0019B01201A1D96
:10F0F000291CFFF7CBFF041E00D0E8E0AB78019A93
:10F1000011AD9371211C1C22281CFDF751F804221B
:10F110002B786C6013432B70019BEC602C616C614D
:10F12000AC619B7904AA93736C4B05AF9381211C4E
:10F130000322381CFDF73CF8002301223B701033FA
:10F1400013437B70BB7805329343043A1343063272
:10F15000934308320CAE93430F3A1343211C1332EE
:10F16000301CBB70FDF724F807AB0C931423B3815C
:10F17000019B34817481346177609888291C321C2A
:10F180000833FFF785FF041E00D0A0E0211C1C22DD
:10F19000281CFDF70DF808222B786C601343921899
:10F1A00013432B70019BEC602C616C61AC619B790B
:10F1B00004AA93734A4B211C9381381C0322FCF749
:10F1C000F7FF00230F223B707B78211C93430E3AFC
:10F1D00013430E321340013213437B70BB780A3A5B
:10F1E0009343043A134306329343083213430F3ACE
:10F1F0001343301C1332BB70FCF7DAFF07AB0C93E0
:10F200001723B381019B34817481346177609888BE
:10F21000291C321C1033FFF73BFF041E57D1211C61
:10F220001C22281CFCF7C4FF02222B786C601343BD
:10F230002B70019BEC602C616C61AC619B7904AA22
:10F240009373284B211C9381381C0322FCF7B0FFD9
:10F250000F223B78211C93430E3A13430E32134086
:10F26000013213433B7000237B70BB780A3A93430F
:10F27000043A134306329343083293430F3A13433D
:10F28000301C1332BB70FCF793FF07AB33600223D3
:10F2900033810223B381029B74813361019B7760C8
:10F2A0009888291C321C2033FFF7F2FE041E0ED171
:10F2B000029B5B680393039A019B9A62029B9B6883
:10F2C000002B01D0019AD3620122074B1A70201C37
:10F2D00019B0F0BDC8F90300301500003215000068
:10F2E0003115000034150000CA340020F0B5061CAA
:10F2F00087B00E20002E2AD03288164B06389A424C
:10F3000025D0154B1B78002B21D0144C080AE17036
:10F310002071080C090E0723A171694610220127EC
:10F3200002ADCB8060710021281C63702270A77031
:10F33000FCF73EFF338A30882B800023AB806B467E
:10F34000291C0633AF70AB60EC60FFF7A5FE07B079
:10F35000F0BDC046FFFF0000CA340020CB340020BF
:10F36000F0B5061C87B00E20002E28D03288154B31
:10F3700006389A4223D0144B1B78002B1FD0112340
:10F38000124D02AC2B700B0AAB700B0CEB706B4682
:10F390009F1D05236970090E2971201C0021102270
:10F3A0003B80FCF705FF338A308823800123A3705C
:10F3B0000023211CA380A760E560FFF76DFE07B066
:10F3C000F0BDC046FFFF0000CA340020CB3400204F
:10F3D000F0B5051C87B00E20002D23D02C88124BD1
:10F3E00006389C421ED0114B1B78002B1AD0104EB1
:10F3F0001023717069468F1D032102AC3980B270F1
:10F4000000211A1C201C3370FCF7D2FE2B8A28889E
:10F4100023800123A3700023211CA380A760E66042
:10F42000FFF73AFE07B0F0BDFFFF0000CA3400202E
:10F43000CB340020F0B589B0002800D1B1E000291C
:10F4400000D1AEE0826A002A00D1AAE00B88112B1D
:10F450001AD004D8102B00D0A3E08B8816E00E1C25
:10F46000041C502B02D0512B12D09AE0C98803897A
:10F47000994200D095E0082304A90B70F38B203645
:10F480000B724E6090478CE001235B42038088E062
:10F490008A79022A00D084E00A89038A9A4200D03D
:10F4A0007FE08B7A043B022B00D87AE0022301AD87
:10F4B0000021082204AF281C3B70FCF779FE0223D0
:10F4C0002B8000236B806B466B602088A18A2A1CEE
:10F4D000FFF7E0FD002804D0E36A002B05D0984731
:10F4E00003E06B461B78DB0707D4FE232088FF333D
:10F4F000391CBB80FFF7D2FD4DE0B880391C208855
:10F50000FFF7CCFD002846D1F31CD97F481E072801
:10F510003DD800F07FF9040E1B1D1F213A23002364
:10F520002B70338C012B02D8201C012108E0012311
:10F5300008E001232B70328C9A4203D8201C022150
:10F54000062226E023362B726E6019E0022316E0B5
:10F55000032314E0042312E0052310E0338C022B74
:10F5600002D8201C082113E0731DDB7F0436F27FD4
:10F570001B021343AB8001D1073300E006232B703D
:10F58000A36A201C291C98470BE00923F7E7201CDD
:10F590000322FFF71DFF002803D0E36A002B00D0F1
:10F5A000984709B0F0BD000010B51B4A1378111C34
:10F5B000012B19D1194B1B681B0715D1184BE024DF
:10F5C0001A68F023101C184022420BD1154A126809
:10F5D0001A4209D1144A154B1A608022144B1202A8
:10F5E0001A6001E03028F1D00B68DBB2012B12D198
:10F5F0000A4A126812070ED1F021094A12680A401D
:10F60000402A08D1074A12680A4204D1C122802147
:10F61000D200C9058B5010BDE00F00F0E40F00F0E0
:10F62000E80F00F0EC0F00F0DFFF07C0040500401A
:10F63000186C00402EDF704751DF704710DF7047B5
:10F6400061DF704708B5081C111CFFF709F908BDF8
:10F65000F0B5264B85B01B78002B45D0244B254EAA
:10F660001D6834686A42554162425441EDB2E4B2C9
:10F670000193002D36D103A8FFF7DEFF05280CD03B
:10F68000002804D0291C2A1CFCF79CFD06E0019BE5
:10F6900003981B680093984700E00125002C1ED1B9
:10F6A000154B03A91B8801240B80144B1B68181CE5
:10F6B0000093FFF7C5FF071E052F0BD0002805D0CC
:10F6C00000210A1CFCF77EFD002403E0009833684B
:10F6D00098473C1C002DCCD0002CCAD004E0002D53
:10F6E00002D1C6E7002CDBD005B0F0BDD23400203B
:10F6F000DC340020E0340020D4340020D834002052
:10F7000038B5041C0720002913D08D0711D10948F2
:10F7100001600949201C0A80084A09491360FFF763
:10F720008DFF002805D10122064B16301A70FFF715
:10F7300081FF38BDD8340020D4340020E4340020C8
:10F7400045F60300D23400200E23002802D0024BDD
:10F7500018600023181C7047E03400200E23002896
:10F7600002D0024B18600023181C7047DC340020C4
:10F7700008B5074B1B68002B07D09847002806D018
:10F7800000210A1CFCF71EFD01E0FFF761FF08BD28
:10F79000E434002008B5002904D00020011C021C1C
:10F7A000FCF710FDFFF754FF08BD0000002008B56E
:10F7B000011C024AFCF73AFD08BDC04695F703005C
:10F7C00003210A4802680A430260094802680A43A2
:10F7D00002600849084A094B9B1A03DD043BC858DC
:10F7E000D050FBDC0648804706480047240500400F
:10F7F00054050040E0F90300002C00206C2C002090
:10F80000A9F50300C1C00300FEE7FEE7FEE7FEE73F
:10F81000FEE7FEE702B4714649084900095C490069
:10F820008E4402BC7047C04603B47146490840008C
:10F830004900095A49008E4403BC7047002243081E
:10F840008B4274D303098B425FD3030A8B4244D3A8
:10F85000030B8B4228D3030C8B420DD3FF220902EA
:10F8600012BA030C8B4202D31212090265D0030BA9
:10F870008B4219D300E0090AC30B8B4201D3CB039F
:10F88000C01A5241830B8B4201D38B03C01A5241E1
:10F89000430B8B4201D34B03C01A5241030B8B42E3
:10F8A00001D30B03C01A5241C30A8B4201D3CB02CE
:10F8B000C01A5241830A8B4201D38B02C01A5241B3
:10F8C000430A8B4201D34B02C01A5241030A8B42B6
:10F8D00001D30B02C01A5241CDD2C3098B4201D3CE
:10F8E000CB01C01A524183098B4201D38B01C01A4C
:10F8F000524143098B4201D34B01C01A52410309C3
:10F900008B4201D30B01C01A5241C3088B4201D371
:10F91000CB00C01A524183088B4201D38B00C01A1E
:10F92000524143088B4201D34B00C01A5241411A45
:10F9300000D20146524110467047FFE701B5002052
:10F9400000F00CF802BDC0460029F7D003B5FFF760
:10F9500075FF0EBC4243891A1847C0467047C0461F
:10F9600030B50024944208D0035D651C0C5DA342B1
:10F9700001D0181B02E02C1CF4E7002030BD00234E
:10F9800010B5934203D0CC5CC4540133F9E710BDE9
:10F990000023C25C0133002AFBD1581E70470000CF
:10F9A000F8B5C046F8BC08BC9E467047F8B5C046DE
:10F9B000F8BC08BC9E46704743000000002C0020A5
:10F9C000446675546172670023D1BCEA5F782315E1
:08F9D000DEEF1212000000003E
:08F9D800E8C6FF7F01000000FA
:10F9E0000000000000000000000000000000000017
:10F9F0000000000000000000000000000000000007
:10FA0000B8F9030000000000000000000000000042
:10FA100000000000000000000000000000000000E6
:10FA200000000000000000000000000000000000D6
:10FA300000000000000000000000000000000000C6
:0CFA4000FFFF000032000000FFFF00008C
:020000020000FC
:020000041000EA
:0410140000C0030015
:040000033000F7C111
:00000001FF
